:020000040800F2
:1000000000000320954A00082D0C00082F0C000862
:10001000310C0008330C0008350C0008000000000B
:10002000000000000000000000000000E1420008A5
:10003000370C000800000000814300087B3E0008E8
:10004000E54A0008E54A0008E54A0008E54A0008D4
:10005000E54A0008E54A0008E54A0008E54A0008C4
:10006000E54A0008E54A0008E54A0008E54A0008B4
:10007000390C0008E54A0008490C0008E54A000868
:10008000E54A0008E54A0008E54A0008E54A000894
:10009000E54A0008E54A0008E54A0008E54A000884
:1000A000E54A0008590C0008E54A0008E54A00083E
:1000B000E54A0008E54A0008E54A0008E54A000864
:1000C000E54A0008E54A0008E54A0008E54A000854
:1000D000E54A0008E54A0008E54A0008690C0008FE
:1000E000E54A0008E54A0008E54A0008E54A000834
:1000F000E54A0008E54A0008E54A0008E54A000824
:10010000E54A0008E54A0008E54A0008E54A000813
:10011000E54A0008E54A0008E54A0008E54A000803
:10012000E54A0008E54A0008E54A0008E54A0008F3
:10013000E54A0008E54A0008E54A0008E54A0008E3
:10014000E54A0008E54A0008E54A0008E54A0008D3
:10015000E54A0008E54A0008E54A0008E54A0008C3
:10016000E54A0008E54A0008E54A0008E54A0008B3
:10017000E54A0008E54A0008E54A000800000000DA
:10018000E54A0008E54A0008E54A0008E54A000893
:10019000E54A0008E54A0008E54A0008E54A000883
:0C01A000E54A0008E54A0008E54A0008AE
:1001B00010B5054C237833B9044B13B10448AFF3A1
:1001C00000800123237010BDC80000200000000043
:1001D0009CEC000808B5034B1BB103490348AFF37F
:1001E000008008BD00000000CC0000209CEC00084E
:1001F00001F0FF01102A2BDB10F0070F08D010F8D8
:10020000013B013A8B422DD010F0070F42B3F6D1DB
:10021000F0B441EA012141EA014122F007047FF0F4
:1002200000070023F0E80256083C85EA010586EA4B
:10023000010685FA47F5A3FA87F586FA47F6A5FA87
:1002400087F68EB9EED1F0BC01F0FF0102F0070293
:1002500032B110F8013B013A83EA010313B1F8D13E
:100260000020704701387047002D06BF354603381F
:10027000073815F0010F07D1013015F4807F02BF58
:10028000013015F4C03F0130F0BC0138704700BFA9
:100290007BB972B90029BEBF00204FF0004106E0D3
:1002A00008BF00281CBF6FF000414FF0FF3000F086
:1002B000BBB9ADF1080C6DE904CE002909DB002BB8
:1002C0001ADB00F04DF8DDF804E0DDE9022304B0AC
:1002D0007047404261EB4101002B1BDB00F040F80E
:1002E000DDF804E0DDE9022304B0404261EB4101A6
:1002F000524263EB43037047524263EB430300F007
:100300002FF8DDF804E0DDE9022304B0404261EBA0
:1003100041017047524263EB430300F021F8DDF8DE
:1003200004E0DDE9022304B0524263EB430370476B
:1003300053B94AB9002908BF00281CBF4FF0FF314C
:100340004FF0FF3000F070B9ADF1080C6DE904CE4C
:1003500000F006F8DDF804E0DDE9022304B07047A0
:100360002DE9F047089E0D4604460F46002B4AD162
:100370008A42944665D9B2FA82F343B102FA03FC89
:10038000C3F120029F4020FA02F217439C404FEA3B
:100390001C4E1FFA8CF5B7FBFEF1220C0EFB1177F9
:1003A00042EA074201FB05F090420AD91CEB020227
:1003B00001F1FF3780F01C81904240F2198102392F
:1003C0006244121AA4B2B2FBFEF00EFB102244EA01
:1003D000024400FB05F5A5420AD91CEB040400F118
:1003E000FF3280F00781A54240F204816444023864
:1003F00040EA0140641B00211EB1DC400023C6E935
:100400000043BDE8F0878B4208D9002E00F0ED8054
:100410000021C6E900050846BDE8F087B3FA83F17C
:10042000002949D1AB4202D3824200F2F880841AFB
:1004300065EB030201201746002EE2D0C6E9004713
:10044000DFE702B9FFDEB2FA82F3002B40F09080C2
:100450008A1A4FEA1C471FFA8CFE0121B2FBF7F5FE
:1004600007FB1520220C42EA00420EFB05F09042E9
:1004700008D91CEB020205F1FF3802D2904200F2CB
:10048000CB804546121AA4B2B2FBF7F007FB10224C
:1004900044EA02440EFB00FEA64508D91CEB040406
:1004A00000F1FF3202D2A64500F2BB801046A4EB59
:1004B0000E0440EA05409FE7C1F120078B4022FA75
:1004C00007FC4CEA030C05FA01F420FA07F3FD409F
:1004D0004FEA1C492343B5FBF9F81FFA8CFE09FBD0
:1004E00018551C0C44EA054408FB0EF5A54202FA17
:1004F00001F200FA01F00BD91CEB040408F1FF3AF9
:1005000080F08880A54240F28580A8F1020864440A
:10051000641B9DB2B4FBF9F309FB134445EA0444A0
:1005200003FB0EFEA64508D91CEB040403F1FF35BE
:100530006CD2A6456AD9023B644443EA0843A3FB54
:100540000295A4EB0E04AC42C846AE4656D353D037
:1005500056B1B0EB080264EB0E0404FA07F7CA4088
:10056000CC401743C6E9007418460021BDE8F08767
:10057000C3F1200102FA03FC20FA01F225FA01F18D
:100580009D402A434FEA1C471FFA8CFEB1FBF7F04F
:1005900007FB1015110C41EA054100FB0EF58D42D9
:1005A00004FA03F408D91CEB010100F1FF382FD243
:1005B0008D422DD902386144491B92B2B1FBF7F547
:1005C00007FB151142EA014205FB0EF1914208D9E1
:1005D0001CEB020205F1FF3816D2914214D9023DFC
:1005E0006244521A45EA004138E73146304608E78E
:1005F0003946E6E61046FBE64845A9D2B9EB0208C3
:1006000065EB0C0E013BA3E74546EAE72B4694E772
:100610004046D1E7D0467BE7023D624432E70846D8
:100620000AE76444023842E7704700BF10F8012B24
:1006300011F8013B012A28BF9A42F7D0D01A70471F
:10064000034613F8012B002AFBD1181A0138704712
:1006500008B50268034B9A4200D008BD01F0F8FAD1
:10066000FBE700BF0000014072B6FEE700B595B0A1
:100670003022002108A804F04EFB002303930493CA
:100680000593069307930193234A116C41F080511F
:100690001164126C02F080520192019A02931F4B76
:1006A0001A6842F440421A601B6803F44043029304
:1006B000029B012308934FF48033099302230E9386
:1006C0004FF480020F92082210924FF4B4721192EC
:1006D00012930423139308A800F03CFBB0B901F077
:1006E00007FAA8B90F230393022304930023059369
:1006F0004FF4A05306934FF480530793052103A8AA
:1007000000F092FD30B915B05DF804FBFFF7ACFFC7
:10071000FFF7AAFFFFF7A8FF003802400070004073
:1007200008B501F07BFAFFF7A1FF00F00BF800F02D
:100730005FF900F07FF903F0ADFB00F049F903F039
:10074000BBFBFEE72DE9F04F8DB000240794089421
:1007500009940A940B9401945F4B1A6B42F00402C3
:100760001A631A6B02F004020192019A02941A6B46
:1007700042F080021A631A6B02F080020292029A1F
:1007800003941A6B42F001021A631A6B02F0010221
:100790000392039A04941A6B42F002021A631A6BD2
:1007A00002F002020492049A05941A6B42F00802C5
:1007B0001A631A6B02F008020592059A06941A6BE6
:1007C00042F040021A631B6B03F040030693069B42
:1007D000DFF80CA1224644F28101504600F01CFFD4
:1007E0003E4F22464021384600F016FF4FF4005B92
:1007F000CDF81CB04FF4881308930994DFF8E49007
:1008000007A9484600F004FE322307930226089603
:10081000099403250A954FF00B08CDF82C8007A901
:10082000484600F0F5FD86230793089609940A953B
:10083000CDF82C80A9F5006907A9484600F0E8FD2D
:1008400044F2810307930123089309940A9407A9AA
:10085000504600F0DDFDCDF81CB0089609940A95CD
:10086000CDF82C8007A9504600F0D2FD4023079315
:100870000123089309940A9407A9384600F0C8FD9B
:10088000802307930894099407A9384600F0C0FD17
:100890004FF4E8530793089609940A950A230B939B
:1008A00007A9484600F0B4FD4FF40073079308947D
:1008B000099407A9484600F0ABFD4FF42053079375
:1008C000089609940A95CDF82C8007A9384600F0BF
:1008D0009FFD0DB0BDE8F08F0038024000180240C7
:1008E000000402400008024000B5A5B02A4B019365
:1008F0002A4B00932A4B2B4A2B49012005F0C4FCBC
:100900001FA805F091FA294B1F93294B2093294BDF
:100910002193294B22931FA805F094FA28B302A82B
:1009200005F0B0FA0DF1280E0DF1080CBCE80F002F
:10093000AEE80F00DCF80030CEF800300AAB002241
:1009400011460FA805F0AAF90FAB1C4A1C4908A8CC
:1009500005F0F2F906F0DCF802461A4B08A91EA8C9
:1009600005F026FA00231D930EE0A121164804F09D
:100970007DF9D4E7C221154804F078F91D9B0133B5
:100980001D930A2003F012FB00221DA91EA805F0EA
:1009900061F90028EED1F1E71D4A0008DF4900089F
:1009A000D1490008B9490008E43000205548000842
:1009B0007548000895480008D548000860F100080F
:1009C000ECEC0008F8EC0008C4EC00080CED0008A2
:1009D00008B5044A0021044803F08AFA034B186062
:1009E00008BD00BF34ED0008E908000820300020F1
:1009F00010B582B0002401940D4B1A6B42F4001222
:100A00001A631B6B03F400130193019B224605211B
:100A10000C2001F0BDF80C2001F0F2F8224605216F
:100A20000E2001F0B5F80E2001F0EAF802B010BD7A
:100A30000038024008B50A480A4B03604FF4E1331E
:100A4000436000238360C36003610C2242618361C1
:100A5000C36101F099FB00B908BDFFF705FEFBE794
:100A6000E43000200048004030B589B000230393F3
:100A700004930593069307930268364B9A4201D07C
:100A800009B030BD04460025019503F5F8331A6C12
:100A900042F480221A641A6C02F480220192019AB4
:100AA00002951A6B42F008021A631B6B03F00803ED
:100AB0000293029B4FF44073039302230493032396
:100AC00006930723079303A9234800F0A1FC2348BA
:100AD000234B03604FF0006343608560C5604FF4B3
:100AE00080630361456185614FF48073C3614FF496
:100AF00040330362456200F015FE28BB174BE363E9
:100B00009C631848184B03604FF000634360402318
:100B100083600023C3604FF480620261436183619C
:100B2000C3614FF440320262436200F0FBFD70B9D2
:100B30000C4BA3639C6300220521272001F028F8B9
:100B4000272001F05DF89BE7FFF78EFDD6E7FFF762
:100B50008BFDEDE700480040000C024024300020EF
:100B60002860024084300020586002400120704715
:100B700008B504F01FF9162303604FF0FF3008BDDD
:100B800008B54FF0FF31FFF7F3FFFEE770B50C46F5
:100B90001646002506E0AFF30080214601F8010B60
:100BA00001350C46B542F6DB304670BD70B50C46DB
:100BB0001646002504E014F8010BAFF30080013560
:100BC000B542F8DB304670BD08B503460D4A1268E1
:100BD0005AB10C4A106803440B4A11780B4A521A56
:100BE000934206D8074A136008BD064A08491160B7
:100BF000EFE700BE04F0DEF80C2303604FF0FF3097
:100C0000F2E700BF303100200004000000000320A4
:100C1000900B01204FF0FF3070474FF400534B60B2
:100C2000002070470120704700207047FEE7FEE774
:100C3000FEE7FEE7FEE7704708B5024800F06AFEEF
:100C400008BD00BF2430002008B5024800F062FE55
:100C500008BD00BF8430002008B5024801F054F8F8
:100C600008BD00BF3431002008B5024801F026FC61
:100C700008BD00BFE430002000B583B00022009220
:100C80000D4B596C41F480415964596C01F4804119
:100C9000009100990192196C41F0805119641B6C0C
:100CA00003F080530193019B0F216FF0010000F0CE
:100CB0006FFF03B05DF804FB0038024030B589B027
:100CC0000546002401941E4B5A6C42F001025A64FE
:100CD0005B6C03F001030193019B02A903A800F0E0
:100CE00079FB00F067FB4300164AA2FB03239B0C31
:100CF000013B1548154A026040F2E732C26043608A
:100D000004618460846101F01BF9044610B120463F
:100D100009B030BD0C4800F0AFFF04460028F6D102
:100D2000192000F06DFF0F2D01D90124EFE70022FB
:100D30002946192000F02CFF054B1D60E7E700BF96
:100D40000038024083DE1B433431002000000140A4
:100D500008000020002800F0E08170B582B0044651
:100D6000036813F0010F3BD09F4B9B6803F00C030B
:100D7000042B2CD09C4B9B6803F00C03082B21D038
:100D80006368B3F5803F4FD0B3F5A02F52D0964B98
:100D90001A6822F480321A601A6822F480221A60DB
:100DA0006368002B50D000F05FFF05468E4B1B6838
:100DB00013F4003F14D100F057FF401B6428F5D90D
:100DC0000320B1E1884B5B6813F4800FD8D0864BC9
:100DD0001B6813F4003F03D06368002B00F09F8171
:100DE000236813F0020F54D07F4B9B6813F00C0F55
:100DF0003ED07D4B9B6803F00C03082B33D0E36897
:100E0000002B68D0794B01221A6000F02DFF0546B7
:100E1000754B1B6813F0020F54D100F025FF401BE7
:100E20000228F5D903207FE16F4A136843F4803329
:100E30001360B5E76C4B1A6842F480221A601A6896
:100E400042F480321A60ABE700F00EFF0546664BB5
:100E50001B6813F4003FC3D000F006FF401B64285A
:100E6000F5D9032060E1604B5B6813F4800FC6D1B5
:100E70005D4B1B6813F0020F03D0E368012B40F0B9
:100E80005081594A136823F0F803216943EAC103EA
:100E90001360236813F0080F42D063696BB3534BA0
:100EA0000122C3F8802E00F0DFFE05464E4B5B6F3B
:100EB00013F0020F34D100F0D7FE401B0228F5D901
:100EC000032031E1484A136823F0F803216943EA1B
:100ED000C1031360DDE7454B00221A6000F0C4FE39
:100EE0000546414B1B6813F0020FD2D000F0BCFE48
:100EF000401B0228F5D9032016E13C4B0022C3F821
:100F0000802E00F0B1FE0546374B5B6F13F0020FE9
:100F100006D000F0A9FE401B0228F5D9032003E10A
:100F2000236813F0040F77D02F4B1B6C13F0805FF6
:100F300033D1002301932C4B1A6C42F080521A6477
:100F40001B6C03F080530193019B0125284B1B6808
:100F500013F4807F23D0A368012B34D0052B38D025
:100F6000214B1A6F22F001021A671A6F22F0040255
:100F70001A67A368002B3DD000F076FE06461A4B98
:100F80001B6F13F0020F46D100F06EFE801B41F282
:100F900088339842F3D90320C6E00025D6E7144AE7
:100FA000136843F48073136000F05EFE0646104B36
:100FB0001B6813F4807FCED100F056FE801B022800
:100FC000F5D90320B0E0084A136F43F0010313671B
:100FD000CFE7054B1A6F42F004021A671A6F42F00E
:100FE00001021A67C5E700BF00380240000047420F
:100FF0000070004000F038FE0646524B1B6F13F0A5
:10100000020F08D000F030FE801B41F28833984276
:10101000F3D9032088E0EDB9A369002B00F08380A9
:10102000484A926802F00C02082A51D0022B17D0CD
:10103000454B00221A6600F017FE0446414B1B6820
:1010400013F0007F42D000F00FFE001B0228F5D9FC
:10105000032069E03B4A136C23F080531364DBE701
:10106000394B00221A6600F0FFFD0546354B1B6820
:1010700013F0007F06D000F0F7FD401B0228F5D9E1
:10108000032051E0E369226A1343626A43EA821350
:10109000A26A5208013A43EA0243E26A43EA02635F
:1010A000284A5360284B01221A6600F0DDFD0446F1
:1010B000244B1B6813F0007F06D100F0D5FD001B08
:1010C0000228F5D903202FE000202DE000202BE09E
:1010D000012B2BD01B4B5B6803F48001E26991422A
:1010E00026D103F03F02216A8A4223D1616A47F682
:1010F000C0721A40B2EB811F1ED103F44031A26AC4
:101100005208013AB1EB024F18D103F07063E26A62
:10111000B3EB026F14D1002006E0012070470120DC
:1011200002E0012000E0002002B070BD0120FBE7DA
:101130000120F9E70120F7E70120F5E70120F3E7B7
:101140000120F1E7003802400000474208B5334B68
:101150009B6803F00C03042B5BD0082B5BD12F4B57
:101160005A6802F03F025B6813F4800F2CD02B4BBF
:101170005868C0F388104FEA401CBCEB000C6EEBC3
:101180000E0E4FEA8E1343EA9C634FEA8C11B1EBCB
:101190000C0163EB0E03DB0043EA5173C90011EB52
:1011A000000C43F10003590200234FEA4C2041EAAE
:1011B000DC51FFF7BDF8194B5B68C3F30143013302
:1011C0005B00B0FBF3F027E0144B5868C0F38810C5
:1011D0004FEA401CBCEB000C6EEB0E0E4FEA8E1378
:1011E00043EA9C634FEA8C11B1EB0C0163EB0E03F5
:1011F000DB0043EA5173C90011EB000C43F100031B
:10120000990200234FEA8C2041EA9C51FFF790F8A5
:10121000D1E7034800E0034808BD00BF00380240A2
:1012200000127A000024F400002800F09B8070B5C2
:101230000D4604464F4B1B6803F00F038B4208D248
:10124000CBB24C4A1370136803F00F038B4240F08B
:101250008B80236813F0020F17D013F0040F04D013
:10126000454A936843F4E0539360236813F0080FF2
:1012700004D0414A936843F4604393603E4A9368C4
:1012800023F0F003A1680B439360236813F0010F70
:1012900032D06368012B21D09A1E012A25D9364A03
:1012A000126812F0020F61D033498A6822F00302FB
:1012B00013438B6000F0D8FC06462F4B9B6803F06D
:1012C0000C036268B3EB820F16D000F0CDFC801BDC
:1012D00041F288339842F0D9032042E0264A12684E
:1012E00012F4003FE0D101203BE0234A126812F0E3
:1012F000007FD9D1012034E01E4B1B6803F00F039F
:10130000AB4207D9EAB21B4B1A701B6803F00F03FC
:10131000AB422DD1236813F0040F06D0164A936810
:1013200023F4E053E1680B439360236813F0080F44
:1013300007D0114A936823F46043216943EAC1034B
:101340009360FFF703FF0C4B9B68C3F303130B4A37
:10135000D35CD8400A4B18600A4B1868FFF7AEFC04
:10136000002070BD012070470120FAE70120F8E756
:101370000120F6E7003C02400038024060ED000822
:101380000C00002008000020014B1868704700BFC7
:101390000C00002008B5FFF7F7FF044B9B68C3F370
:1013A0008223034AD35CD84008BD00BF0038024006
:1013B00070ED000808B5FFF7E7FF044B9B68C3F327
:1013C0004233034AD35CD84008BD00BF0038024016
:1013D00070ED00080F2303600B4B9A6802F00302C4
:1013E00042609A6802F0F00282609A6802F4E05269
:1013F000C2609B68DB0803F4E0530361034B1B6886
:1014000003F00F030B60704700380240003C0240BD
:1014100000230F2B00F2F68070B582B066E085687D
:101420004FEA430E032404FA0EF425EA0405CC68BF
:1014300004FA0EF42C438460446824EA02044A68E7
:10144000C2F300129A40224342605DE0DC08083497
:1014500050F8242003F00705AD004FF00F0E0EFAF0
:1014600005FE22EA0E0E0A69AA4042EA0E0240F880
:1014700024205DE0092200E0002202FA0EF22A4355
:101480000234614D45F82420604A94686FEA0C02EA
:1014900024EA0C054E6816F4801F01D04CEA0405BE
:1014A0005A4CA560E46802EA04054E6816F4001F71
:1014B00001D04CEA0405554CE560646802EA040575
:1014C0004E6816F4003F01D04CEA04054F4C6560AD
:1014D000246822404D6815F4803F01D04CEA040294
:1014E0004A4C226001330F2B00F28A8001229A407D
:1014F0000C6804EA020C32EA0404F3D14C6804F0EC
:101500000304013C012C8AD94A6802F00302032A31
:1015100009D0C4685D000322AA4024EA02048A6854
:10152000AA402243C2604A6802F00302022A8DD018
:1015300004684FEA430E032202FA0EF224EA020480
:101540004A6802F0030202FA0EF2224302604A687D
:1015500012F4403FC6D0002201922D4A546C44F44C
:1015600080445464526C02F480420192019A9C08B7
:10157000A51C254A52F8255003F0030E4FEA8E0EA3
:101580000F2202FA0EF225EA0205224A90423FF4A7
:1015900073AF02F58062904222D002F580629042E1
:1015A00020D002F5806290421ED002F58062904207
:1015B0001CD002F5806290421AD002F580629042FF
:1015C00018D002F58062904216D002F580629042F7
:1015D00014D002F5806290423FF44CAF0A224CE7EF
:1015E00001224AE7022248E7032246E7042244E7B1
:1015F000052242E7062240E707223EE708223CE7B1
:1016000002B070BD704700BF00380140003C01408F
:1016100000380240000002400AB1816170470904AD
:101620008161704730B405682C6824F480242C60F4
:10163000046863608368402B05D003689960036881
:10164000DA6030BC704703689A600368D960F8E7D5
:1016500010B40368D9B210390C4AA2FB0142120936
:101660000B4CA25CC2655F2909D923F47F7323F078
:10167000030304338365806D5DF8044B704723F4E6
:101680007F7323F003038365F5E700BFABAAAAAA23
:1016900058ED0008836A826992B9012B0AD0022BA7
:1016A00002D00BB100207047C36A13F0807F28D1AD
:1016B00000207047C36AB3F1C07F24D00020704778
:1016C000B2F5005F09D0022B25D9032B25D1C36ABF
:1016D00013F0807F23D100207047032B03D8DFE86D
:1016E00003F01404140A00207047C36A13F0807FCB
:1016F0000DD100207047C36AB3F1C07F09D000202C
:101700007047012070470120704701207047012079
:10171000704701207047012070470020704701206A
:101720007047000070B5044600F09EFA002C5BD0B4
:101730000546022384F83530002384F834302268CB
:10174000136823F00103136023681A6812F0010F75
:101750000AD000F089FA431B052BF5D920236365D5
:10176000032084F8350070BD1A6820491140626872
:10177000A0680243E06802432069024360690243B3
:10178000A0690243E0690243206A02430A43616A96
:1017900004291ED01A602668756925F00705636A5A
:1017A0001D43042B07D1A36A1D43E36A1BB12046E6
:1017B000FFF770FF90B975612046FFF749FFE26DB2
:1017C0003F239340836000206065012384F8353017
:1017D000C9E7E16A206B01430A43DBE74023636505
:1017E000012084F83500BEE70120BCE73F8010F0FF
:1017F00038B50446856D90F8340001282BD00120BF
:1018000084F8340094F83500C0B2012804D00023D5
:1018100084F83430022038BD022084F835000020DE
:1018200060652046FFF7FEFEE26D3F239340AB600C
:101830002268136843F016031360236C23B12268F7
:10184000136843F0080313602268136843F0010330
:1018500013600020DFE70220DDE770B50446866DE7
:1018600000F002FA94F83530DBB2022B06D0802368
:101870006365002384F83430012070BD054622687A
:10188000136823F0160313602268536923F0800362
:101890005361236CE3B12268136823F008031360DB
:1018A0002268136823F00103136023681B6813F098
:1018B000010F11D000F0D8F9431B052BF5D92023D7
:1018C0006365032084F83500002384F83430D4E7BE
:1018D000A36C002BDFD1E3E7E26D3F239340B360BD
:1018E000012384F83530002084F83400C5E790F8EF
:1018F0003530DBB2022B03D08023436501207047D3
:10190000052380F835300268136823F00103136063
:1019100000207047F0B583B0044600230193724B5A
:101920001D68724BA3FB0535AD0A876D3E68C26D1D
:1019300008239340334210D003681A6812F0040F52
:101940000BD01A6822F004021A60C26D082393407B
:10195000BB60436D43F001034365E26D0123934097
:10196000334209D02268526912F0800F04D0BB6064
:10197000636D43F002036365E26D042393403342D9
:1019800009D02268126812F0020F04D0BB60636DA8
:1019900043F004036365E26D10239340334224D087
:1019A0002268126812F0080F1FD0BB6023681A6803
:1019B00012F4802F0DD01B6813F4002F04D1236C78
:1019C0009BB12046984710E0A36C73B1204698471E
:1019D0000BE01A6812F4807F03D11A6822F0080223
:1019E0001A60236C0BB120469847E26D2023934088
:1019F000334255D02268126812F0100F50D0BB60ED
:101A000094F83530DBB2052B0ED023681A6812F437
:101A1000802F33D01B6813F4002F2AD1636C002B66
:101A20003ED0204698473BE02268136823F0160317
:101A300013602268536923F080035361236CA3B1C0
:101A40002268136823F008031360E26D3F2393407C
:101A5000BB60012384F83530002384F83430236DD3
:101A6000002B3FD0204698473CE0A36C002BE7D1E9
:101A7000EBE7E36BA3B12046984711E01A6812F434
:101A8000807F09D11A6822F010021A60012384F8BD
:101A90003530002384F83430E36B0BB1204698478F
:101AA000636DFBB1636D13F0010F17D0052384F84C
:101AB00035302268136823F001031360019B013362
:101AC0000193AB4204D823681B6813F0010FF5D1D2
:101AD000012384F83530002384F83430E36C0BB1F3
:101AE0002046984703B0F0BD0C000020B5814E1B86
:101AF00010B582B000230193194B1A6C42F080524A
:101B00001A641B6C03F080530193019B154B012257
:101B10001A6400F0A9F80446134B5B6813F4803F85
:101B200008D100F0A1F8001BB0F57A7FF4D90320AA
:101B300002B010BD0B4B01225A6400F095F8044628
:101B4000094B5B6813F4003F07D100F08DF8001BD0
:101B5000B0F57A7FF4D90320EAE70020E8E700BF78
:101B60000038024000000E4200700040074AD3686F
:101B700023F4E0631B041B0C000200F4E060034349
:101B800043F0BF6343F40033D360704700ED00E0DF
:101B900000B5194BDB68C3F30223C3F1070CBCF19A
:101BA000040F28BF4FF0040C03F1040EBEF1060F22
:101BB00018D9033B4FF0FF3E0EFA0CFC21EA0C0152
:101BC00099400EFA03FE22EA0E020A4300280BDBBC
:101BD0001201D2B200F1604000F5614080F80023AC
:101BE0005DF804FB0023E5E700F00F001201D2B21C
:101BF000024B1A54F4E700BF00ED00E014ED00E0E2
:101C0000002807DB00F01F02400901239340024A2D
:101C100042F82030704700BF00E100E008B50B4BF0
:101C20001A6842F400721A601A6842F480621A60FC
:101C30001A6842F480721A600320FFF797FF0F20A2
:101C4000FFF73CF8FFF718F8002008BD003C024001
:101C5000034A1168034B1B780B441360704700BFA5
:101C60007C31002004000020014B1868704700BF41
:101C70007C3100207047000090F83D30DBB2012B32
:101C800037D1022380F83D300268D36843F0010366
:101C9000D3600368194A934220D0B3F1804F1DD01E
:101CA000A2F57C42934219D002F58062934215D08E
:101CB00002F58062934211D002F5784293420DD032
:101CC00002F57052934209D0A2F59432934205D0A6
:101CD0001A6842F001021A60002070479A6802F008
:101CE0000702062A07D01A6842F001021A60002093
:101CF0007047012070470020704700BF000001407E
:101D0000704770477047704770B504460368DE68D7
:101D10001D6915F0020F10D016F0020F0DD06FF0F4
:101D200002021A610123037703689B6913F0030F12
:101D30005ED0FFF7E6FF0023237715F0040F12D0E3
:101D400016F0040F0FD023686FF004021A6102230B
:101D5000237723689B6913F4407F4FD02046FFF719
:101D6000D0FF0023237715F0080F12D016F0080FCC
:101D70000FD023686FF008021A61042323772368C9
:101D8000DB6913F0030F40D02046FFF7BAFF0023B2
:101D9000237715F0100F12D016F0100F0FD0236814
:101DA0006FF010021A61082323772368DB6913F4AC
:101DB000407F31D02046FFF7A4FF0023237715F0A2
:101DC000010F02D016F0010F2DD115F0800F02D0B7
:101DD00016F0800F2FD115F0400F02D016F0400FF3
:101DE00031D115F0200F02D016F0200F33D170BD85
:101DF000FFF786FF2046FFF785FF9CE72046FFF7A9
:101E00007FFF2046FFF77EFFABE72046FFF778FF16
:101E10002046FFF777FFBAE72046FFF771FF20461D
:101E2000FFF770FFC9E723686FF001021A612046CF
:101E3000FEF70EFCC9E723686FF080021A612046A6
:101E400000F0ABF8C7E723686FF040021A61204644
:101E5000FFF759FFC5E723686FF020021A6120469B
:101E600000F09AF8C3E700000368344A904212D0A9
:101E7000B0F1804F0FD0A2F57C4290420BD002F51A
:101E80008062904207D002F58062904203D002F552
:101E90007842904203D123F070034A681343274AE3
:101EA00090422AD0B0F1804F27D0A2F57C429042D8
:101EB00023D002F5806290421FD002F580629042EA
:101EC0001BD002F57842904217D002F57052904232
:101ED00013D002F5806290420FD002F580629042EA
:101EE0000BD0A2F59832904207D002F58062904262
:101EF00003D002F58062904203D123F44073CA6894
:101F0000134323F080034A69134303608B68C36261
:101F10000B688362094B984203D003F580639842B3
:101F200001D10B69036301234361036913F0010FBE
:101F300003D0036923F001030361704700000140EF
:101F400040B310B5044690F83D30F3B1022384F855
:101F50003D30214651F8040BFFF786FF012384F83A
:101F6000463084F83E3084F83F3084F8403084F8BE
:101F7000413084F8423084F8433084F8443084F8A7
:101F8000453084F83D30002010BD80F83C30FFF72C
:101F900071FEDBE70120704770477047026802F16D
:101FA0000C0353E8003F23F0C0030C3242E8003139
:101FB0000029F3D1202380F841307047026802F1F4
:101FC0000C0353E8003F23F490730C3242E80031D5
:101FD0000029F3D1026802F1140353E8003F23F013
:101FE0000103143242E800310029F3D1036B012BC5
:101FF00005D0202380F84230002303637047026835
:1020000002F10C0353E8003F23F010030C3242E8C6
:1020100000310029F3D1ECE790F84130DBB2212BFD
:1020200001D0022070478368B3F5805F17D0036A40
:102030005A1C02621A7803685A60C38C9BB2013B37
:102040009BB2C3844BB90268D36823F08003D3608A
:102050000268D36843F04003D360002070470369EF
:10206000002BE4D1036A1B880268C3F308035360A2
:10207000036A02330362E0E710B50446026813699D
:1020800023F44053C1680B431361836802691A4308
:1020900043691A43C3691A430168CB6823F41643A2
:1020A00023F00C031343CB600268536923F440739D
:1020B00081690B4353610368314A934206D002F5AC
:1020C0008062934202D0FFF765F901E0FFF772F9F1
:1020D000E369B3F5004F29D00021031849411B18CB
:1020E00041F10001C90041EA5371DB00181863682F
:1020F0004FEA83024FEA937341F10001FEF718F9AA
:10210000204AA2FB00314909642303FB11031B0190
:102110003233A2FB03235B0903F0F00202EB01124E
:1021200003F00F03216813448B6010BD00230218D5
:1021300043EB0301121841F10001C90041EA527159
:10214000D200101841F10001626892185B41FEF75D
:10215000EFF80C4AA2FB00314909642303FB110389
:10216000DB003233A2FB03235B095A0002F4F8724E
:1021700002EB011203F00703216813448B60D4E7DC
:10218000001001401F85EB5160B310B5044690F874
:10219000413013B3242384F841302268D36823F4F8
:1021A0000053D3602046FFF767FF2268136923F4CA
:1021B000904313612268536923F02A035361226814
:1021C000D36843F40053D36000206064202384F874
:1021D000413084F84230606310BD80F84030FEF733
:1021E00043FCD7E70120704738B5134690F84120EB
:1021F000D2B2202A2FD1044600292ED00BB90120BB
:1022000038BD01628384C38400224264212084F8A3
:102210004100A06B124DC563A06B124D0564A06B0D
:10222000114DC564A06B026522680432A06BFFF7F4
:10223000DFFA23686FF040021A60226802F114038B
:1022400053E8003F43F08003143242E80031002994
:10225000F3D10020D4E70220D2E70120D0E700BF6D
:10226000F32200085B2300086B23000810B5044626
:1022700003685A6990F84130DBB2212B0AD02368F9
:102280005A6902F0400294F84230DBB2222B19D096
:10229000002010BD02F08002002AF0D0226802F176
:1022A000140353E8003F23F08003143242E8003166
:1022B0000029F3D1A06B08B1FFF7CFFA2046FFF752
:1022C0006DFEDCE7002AE3D0226802F1140353E834
:1022D000003F23F04003143242E800310029F3D1DB
:1022E000E06B08B1FFF7B9FA2046FFF767FECFE7CA
:1022F000704708B50346806B1B681B6813F4807F2A
:102300001AD10023C384026802F1140353E8003F8A
:1023100023F08003143242E800310029F3D102682F
:1023200002F10C0353E8003F43F040030C3242E853
:1023300000310029F3D108BDFFF7DAFFFBE708B54C
:102340000168CA6822F04002CA60202280F8412059
:10235000FFF7CEFF002008BD704708B5806BFFF780
:10236000FBFF08BD70477047704710B5846B23684A
:102370005A6994F84130DBB2212B10D023685A6996
:1023800002F0400294F84230DBB2222B11D0636C91
:1023900043F0100363642046FFF7E6FF10BD02F030
:1023A0008002002AEAD00023E3842046FFF7F6FDEE
:1023B000E4E7002AEBD00023E3852046FFF7FEFD8B
:1023C000E5E708B5806B0023C385C384FFF7CCFF26
:1023D00008BD704790F84230DBB2222B69D1836888
:1023E000B3F5805F4FD0826AB3F5805F04D0002BD5
:1023F00056D10369002B53D103685B681370836A5D
:1024000001338362C38D9BB2013B9BB2C385002B1A
:1024100051D100B583B00268D36823F02003D360A4
:102420000268D36823F48073D3600268536923F091
:1024300001035361202380F8423000234363036B80
:10244000012B33D100230363026802F10C0353E82C
:10245000003F23F010030C3242E800310029F3D191
:1024600003681A6812F0100F06D0002201921A6851
:1024700001925B680193019B818DFFF7AAFF002009
:1024800003B05DF804FB0269002AACD1826A0368DC
:102490005B68C3F308031380836A02338362B1E786
:1024A00003685B6803F07F031370A8E7FFF75AFF28
:1024B000E5E70220704700207047000030B583B088
:1024C000044602681368D068516913F00F0505D1FE
:1024D00013F0200F02D010F0200F19D12DB111F000
:1024E000010119D110F4907F16D1216B01297DD003
:1024F00013F0800F03D010F0800F40F0198113F01B
:10250000400F03D010F0400F40F0168103B030BDF3
:102510002046FFF75FFFF9E713F0010F06D010F434
:10252000807F03D0626C42F00102626413F0040FFA
:1025300004D019B1626C42F00202626413F0020F1F
:1025400004D019B1626C42F00402626413F0080F07
:1025500007D010F0200F00D119B1626C42F00802D0
:102560006264626C002AD1D013F0200F02D010F008
:10257000200F29D123685B6903F04003626C12F0DD
:10258000080F00D163B32046FFF718FD23685B698D
:1025900013F0400F20D0226802F1140353E8003FEB
:1025A00023F04003143242E800310029F3D1E36BF9
:1025B00073B1634A1A65E06BFFF799F90028A5D05B
:1025C000E06B036D9847A1E72046FFF703FFD1E7D3
:1025D0002046FFF7C9FE99E72046FFF7C5FE95E7BD
:1025E0002046FFF7C1FE002363648FE713F0100F4E
:1025F0003FF47EAF10F0100F3FF47AAF0023019349
:102600001368019353680193019B536913F0400FC2
:1026100052D0E26B13685B689BB2002B3FF476AF3D
:10262000A18D99427FF672AFE385D369B3F5807FC0
:1026300037D0226802F10C0353E8003F23F4807383
:102640000C3242E800310029F3D1226802F1140370
:1026500053E8003F23F00103143242E8003100291F
:10266000F3D1226802F1140353E8003F23F0400342
:10267000143242E800310029F3D1202384F842309B
:1026800000232363226802F10C0353E8003F23F088
:1026900010030C3242E800310029F3D1E06BFFF760
:1026A000DCF802236363A18DE38D9BB2C91A89B262
:1026B0002046FFF78EFE29E7A18DE38D9BB2C91A54
:1026C00089B2E38D9BB2002B3FF420AF00293FF489
:1026D0001DAF226802F10C0353E8003F23F490730E
:1026E0000C3242E800300028F3D1226802F11403D2
:1026F00053E8003F23F00103143242E80030002881
:10270000F3D1202384F8423000232363226802F1AE
:102710000C0353E8003F23F010030C3242E8003072
:102720000028F3D1022363632046FFF752FEEDE653
:102730002046FFF771FCE9E62046FFF700FEE5E6DC
:10274000C323000808B5806B01234363036B012B8F
:1027500002D0FFF708FE08BD818D4908FFF739FE5A
:10276000F9E708B50346806B1B681B6813F4807F8C
:102770002BD10023C385026802F10C0353E8003F0C
:1027800023F480730C3242E800310029F3D102684F
:1027900002F1140353E8003F23F00103143242E82E
:1027A00000310029F3D1026802F1140353E8003F1D
:1027B00023F04003143242E800310029F3D12023F2
:1027C00080F84230036B012B07D000234363036B77
:1027D000012B0FD0FFF7C6FD08BD026802F10C0304
:1027E00053E8003F23F010030C3242E80031002987
:1027F000F3D1EAE7818DFFF7ECFDEDE730B583B06B
:10280000044613468162828500254564222280F8B1
:102810004220C26B1F48D063E26B1F481064E26B1A
:102820001E48D064E26B156520680A46011DE06B06
:10283000FEF7DEFF019523681A6801925B68019339
:10284000019B23695BB1226802F10C0353E8003F4E
:1028500043F480730C3242E800310029F3D122683E
:1028600002F1140353E8003F43F00103143242E83D
:1028700000310029F3D1226802F1140353E8003F2C
:1028800043F04003143242E800310029F3D1002024
:1028900003B030BD63270008452700086B230008FC
:1028A00008B590F84230DBB2202B08D149B10AB903
:1028B000012008BD00230363FFF7A0FFF9E7022012
:1028C000F7E70120F5E70000034AD2F8883043F427
:1028D0007003C2F88830704700ED00E000F1080393
:1028E00043604FF0FF328260C360036100230360E6
:1028F000704700230361704743684B609A688A60A1
:10290000516099600861036801330360704730B417
:102910000D68B5F1FF3F11D000F108031C465B685C
:102920001A68AA42FAD963684B6099608C6061604A
:10293000086103680133036030BC70470469F2E743
:102940000369416882688A60416851605A688242BE
:1029500006D0002202611A68013A1A6018687047AE
:1029600082685A60F5E710B5044601F0CBFCA26B13
:10297000E36B9A4204D0002401F0E6FC204610BD2F
:102980000124F9E710B5044601F0BCFCA36B23B9A0
:10299000012401F0D9FC204610BD0024F9E770B5F0
:1029A00004461546866B026C5AB903681BB10020B9
:1029B0000136A66370BD806800F0EEFF0023A360BF
:1029C000F6E76DB9406802F022FA226C636813449E
:1029D0006360A268934219D3236863602846E7E7DF
:1029E000C06802F014FA226C5142E3689B1AE3605B
:1029F0002268934202D2A3680B44E360022D01D007
:102A00000020D5E726B1013E0020D1E72846CFE7D8
:102A10000020CDE70346026C6AB110B50846D968BC
:102A20001144D9609C68A14201D31968D960D96862
:102A300002F0EDF910BD704738B5054601F062FCB3
:102A400095F8454064B201E0013C64B2002C0ADD17
:102A50006B6A43B105F1240000F0D8FE0028F3D0E2
:102A600000F084FFF0E7FF2385F8453001F06CFCAF
:102A700001F048FC95F8444064B201E0013C64B2C6
:102A8000002C0ADD2B6943B105F1100000F0BEFEF9
:102A90000028F3D000F06AFFF0E7FF2385F8443008
:102AA00001F052FC38BD38B5E0B10D46044601F0E6
:102AB00029FC2368E26B216C01FB0230A06000203E
:102AC000A0636360013A02FB0133E360FF2384F8F3
:102AD000443084F84530FDB9236963B901F034FC12
:102AE000012038BD4FF0500383F31188BFF36F8F7F
:102AF000BFF34F8FFEE704F1100000F087FE0028BF
:102B0000ECD04FF0E0234FF08052C3F8042DBFF318
:102B10004F8FBFF36F8FE1E704F11000FFF7DEFE88
:102B200004F12400FFF7DAFED8E738B51D46049C0F
:102B30000B4649B92460E063236401212046FFF776
:102B4000B2FF84F84C5038BD2260F4E740B94FF032
:102B5000500383F31188BFF36F8FBFF34F8FFEE7EE
:102B600010B584B01C46844653B192B189B94FF078
:102B7000500383F31188BFF36F8FBFF34F8FFEE7CE
:102B80004FF0500383F31188BFF36F8FBFF34F8F64
:102B9000FEE76AB150230393039B502B13D04FF0F1
:102BA000500383F31188BFF36F8FBFF34F8FFEE79E
:102BB0000029EFD04FF0500383F31188BFF36F8FDC
:102BC000BFF34F8FFEE7039B012384F84630009448
:102BD0009DF818306046FFF7A8FF204604B010BDEE
:102BE000F0B585B0019288B10F461D460446B1B1DB
:102BF000022D20D1E36B012B1DD04FF0500383F346
:102C00001188BFF36F8FBFF34F8FFEE74FF0500374
:102C100083F31188BFF36F8FBFF34F8FFEE7036C11
:102C2000002BE5D04FF0500383F31188BFF36F8F73
:102C3000BFF34F8FFEE700F09FFE064658B9019B99
:102C4000002B48D04FF0500383F31188BFF36F8FF0
:102C5000BFF34F8FFEE700263DE02A463946204667
:102C6000FFF79DFE636A7BB948B14FF0E0234FF058
:102C70008052C3F8042DBFF34F8FBFF36F8F01F065
:102C800063FB012005B0F0BD04F1240000F0BEFD9F
:102C90000028F4D04FF0E0234FF08052C3F8042D09
:102CA000BFF34F8FBFF36F8FE9E701F04DFB0020BB
:102CB000E8E702A800F00CFE012619E0002384F8E2
:102CC000443021E0002384F8453023E02046FFF71C
:102CD000B3FE00F07BFC01F015FBA26BE36B9A42A4
:102CE000BBD3022DB9D0019B002BDED0002EE0D04B
:102CF00001F02AFB00F0D0FB01F004FB94F8442023
:102D000052B2B2F1FF3FD9D094F8452052B2B2F19D
:102D1000FF3FD7D001F018FB01A902A800F0E4FDA5
:102D2000D8B92046FFF71FFE0028CFD0019904F143
:102D3000100000F037FD2046FFF77EFE00F046FC55
:102D40000028C8D14FF0E0234FF08052C3F8042D83
:102D5000BFF34F8FBFF36F8FBDE72046FFF76CFEC9
:102D600000F034FC00208DE72DE9F84390B10F46C8
:102D700016461C460546B1B1022C20D1EB6B012B47
:102D80001DD04FF0500383F31188BFF36F8FBFF353
:102D90004F8FFEE74FF0500383F31188BFF36F8F1F
:102DA000BFF34F8FFEE7036C002BE5D04FF05003CD
:102DB00083F31188BFF36F8FBFF34F8FFEE701F0EE
:102DC000C7FBEFF311884FF0500383F31188BFF373
:102DD0006F8FBFF34F8FAA6BEB6B9A4206D3022C17
:102DE00004D0002088F31188BDE8F88395F8459059
:102DF0004FFA89F9AB6B224639462846FFF7CFFDDB
:102E0000B9F1FF3F06D009F101035BB285F8453007
:102E10000120E7E76B6A0BB90120E3E705F1240025
:102E200000F0F4FC18B126B101203060DAE701208F
:102E3000D8E70120D6E7F0B585B0019290B10F46F2
:102E40000446C1B100F098FD064600BB019B002B73
:102E50005ED04FF0500383F31188BFF36F8FBFF341
:102E60004F8FFEE74FF0500383F31188BFF36F8F4E
:102E7000BFF34F8FFEE7036C002BE3D04FF05003FE
:102E800083F31188BFF36F8FBFF34F8FFEE70026E8
:102E90003EE039462046FFF7BDFD013DA5632369AD
:102EA00023B901F051FA012005B0F0BD04F1100082
:102EB00000F0ACFC0028F4D04FF0E0234FF080523B
:102EC000C3F8042DBFF34F8FBFF36F8FE9E701F015
:102ED0003BFA0020E8E702A800F0FAFC012621E016
:102EE000002384F8443029E0002384F845302BE0A7
:102EF0002046FFF7A1FD00F069FB09E02046FFF73F
:102F00009BFD00F063FB2046FFF73CFD00283FD10E
:102F100001F0F8F9A56B002DBBD1019B002BD6D099
:102F2000002ED8D001F010FA00F0B6FA01F0EAF95C
:102F300094F844305BB2B3F1FF3FD1D094F8453000
:102F40005BB2B3F1FF3FCFD001F0FEF901A902A8B7
:102F500000F0CAFC0028D1D12046FFF713FD00285D
:102F6000C6D0019904F1240000F01CFC2046FFF7B4
:102F700063FD00F02BFB0028CAD14FF0E0234FF097
:102F80008052C3F8042DBFF34F8FBFF36F8FBFE79D
:102F9000002089E70023072B0CD8074A52F833207A
:102FA0000AB10133F7E7044A42F8331002EBC302D7
:102FB00050607047704700BF8031002070B50446F4
:102FC0000D46164601F09EF994F844305BB2B3F119
:102FD000FF3F0DD094F845305BB2B3F1FF3F0BD00B
:102FE00001F0B2F9A36B5BB12046FFF725FD70BD80
:102FF000002384F84430EDE7002384F84530EFE700
:103000003246294604F1240000F0E4FBECE700001E
:10301000084B1B681B6823B9074B4FF0FF321A603F
:103020007047044B1B68DB68DB685A68024B1A6008
:10303000704700BFC43100206C3600202DE9F047F6
:1030400080460D4617469946089EDDF824A00A9C46
:103050009200A521206B01F05EFE236B07F18042F8
:10306000013A03EB820727F00707A5B34FF0000CE6
:10307000BCF10F0F09D815F80C3004EB0C0282F8E4
:10308000343013B10CF1010CF2E7002384F8433023
:10309000372E00D93726E662E66400252565201D17
:1030A000FFF727FC04F11800FFF723FC2461C6F1A9
:1030B0003806A6616462656584F858504A46414600
:1030C000384601F0F7F82060BAF1000F01D0CAF8D5
:1030D0000040BDE8F087002384F83430D8E70000D2
:1030E00038B5002407E004EB840293000E4818442E
:1030F000FFF7F4FB0134372CF5D90C4D2846FFF7C8
:10310000EDFB0B4C2046FFF7E9FB0A48FFF7E6FB17
:103110000948FFF7E3FB0948FFF7E0FB084B1D6098
:10312000084B1C6038BD00BFCC3100204036002069
:103130005436002078360020A43600209036002037
:10314000C4310020C831002010B5044601F0DAF87F
:10315000224A136801331360214B1B685BB1214B7A
:103160001B686BB91E4B1B68DA6AE36A9A4207D880
:103170001B4B1C6004E01A4B1C601368012B29D008
:10318000194A1368013313606364E06A174B1B68C4
:10319000984201D9154B186000EB8000211D144B9B
:1031A00003EB8000FFF7A8FB01F0CEF80D4B1B6886
:1031B0007BB10B4B1B68DA6AE36A9A4209D24FF083
:1031C000E0234FF08052C3F8042DBFF34F8FBFF3BD
:1031D0006F8F10BDFFF784FFD2E700BF2C360020B1
:1031E000C03100208C360020383600203C360020CC
:1031F000CC31002010B5044690F8593063B1012B52
:1032000011D0022B0ED04FF0500383F31188BFF37F
:103210006F8FBFF34F8FFEE7006B00F0CFFF2046AC
:1032200000F0CCFF10BD00F0C9FFFBE70F4B1B689F
:10323000D3B110B501F066F80D4BDB68DC68201DDA
:10324000FFF77EFB0B4A1368013B1360074A1368C4
:10325000013B136001F078F82046FFF7CBFF034BEA
:103260001B68002BE6D110BD704700BF3036002030
:10327000A43600202C36002008B5FFF7D7FF074BF7
:103280001B68012BF9D94FF0E0234FF08052C3F8AF
:10329000042DBFF34F8FBFF36F8FEEE7CC310020CB
:1032A00070B504460D46174B1E68174B186804305E
:1032B000FFF746FBB4F1FF3F0DD03444124B1B68BF
:1032C0005C60A64210D9114B18680F4B1968043185
:1032D000FFF71DFB70BD002DEFD00B4B19680431BB
:1032E0000B48FFF709FBF5E70A4B1868064B19680E
:1032F0000431FFF70CFB084B1B68A342EAD9064BCD
:103300001C60E7E7B8360020C0310020C83100203B
:1033100090360020C43100206C36002030B587B0D4
:103320000B9C7CB10C9DB5B15C250495049D5C2D76
:103330001AD04FF0500383F31188BFF36F8FBFF3A0
:103340004F8FFEE74FF0500383F31188BFF36F8F69
:10335000BFF34F8FFEE74FF0500383F31188BFF3A5
:103360006F8FBFF34F8FFEE7049D0C9D2C630224EB
:1033700085F8594000240394029505AC01940A9CF9
:103380000094FFF75BFE0C98FFF7DEFE059807B090
:1033900030BD2DE9F04385B00746884614461E46E9
:1033A000900000F08DFE00B381465C2000F088FEA6
:1033B0000546B0B1C0F83090E5B1002385F859302A
:1033C000039302950D9B01930C9B00933346224679
:1033D00041463846FFF732FE2846FFF7B5FE01208A
:1033E00005E0484600F0EAFEE6E74FF0FF3005B0A2
:1033F000BDE8F0834FF0FF30F9E7000010B588B06A
:1034000000240594069407AA06A905A800F0DCFD8F
:10341000059B0293069B019300942346079A184943
:103420001848FFF77BFF184B186040B100F068FBAD
:10343000012806D0B0F1FF3F18D008B010BD002021
:10344000F6E74FF0500383F31188BFF36F8FBFF39C
:103450004F8F0E4B4FF0FF321A600D4B01221A6056
:103460000C4B00221A6000F0E7FFE6E74FF0500334
:1034700083F31188BFF36F8FBFF34F8FFEE700BF59
:1034800078ED000879320008683600206C3600209C
:103490008C360020B8360020024A136801331360CE
:1034A000704700BF34360020014B1868704700BFDA
:1034B000B8360020F8B53A4B1B68002B69D1394B60
:1034C0001D6801351D60C5B9374B1B681B6843B1CA
:1034D0004FF0500383F31188BFF36F8FBFF34F8F0B
:1034E000FEE7314A1168314B186810601960304AA4
:1034F000136801331360FFF78BFD2E4B1B68AB4243
:103500003DD900272C4B1B68DB6A03EB83039A0031
:103510002A4B9B58012B00D90127294B1B68002BF4
:103520003CD001273AE001271F4B1B681B6843B3BF
:103530001D4B1B68DB68DC6863689D4226D3261D33
:103540003046FFF7FDF9A36A1BB104F11800FFF73D
:10355000F7F9E36A1B4A1268934201D9194A1360CA
:1035600003EB83039A00314614481044FFF7C4F973
:10357000E26A114B1B68DB6A9A42D4D2D4E7002777
:10358000D2E70C4B4FF0FF321A60BBE7094A1360D9
:10359000B8E70D4A13680133136000273846F8BDB9
:1035A00034360020B8360020C4310020C831002055
:1035B000703600206C360020C0310020CC31002055
:1035C000BC3600203C3600207436002038B5354B20
:1035D0001B6843B94FF0500383F31188BFF36F8F1B
:1035E000BFF34F8FFEE700F08DFE2E4B1A68013AB5
:1035F0001A601B68002B4FD12B4B1B680BB90024A2
:103600004BE00024294B1B681BB3284BDB68DC68AC
:1036100004F11800FFF794F9251D2846FFF790F9EB
:10362000E06A234B1B68984201D9214B186000EBDC
:10363000800029461F4B03EB8000FFF75DF9E26A2B
:103640001D4B1B68DB6A9A42DCD31C4B01221A60BB
:10365000D8E70CB1FFF7DCFC194B1C6884B9174B99
:103660001C68D4B14FF0E0234FF08052C3F8042D12
:10367000BFF34F8FBFF36F8F01240EE0013C07D0E3
:10368000FFF718FF0028F9D00C4B01221A60F5E76C
:103690000B4B00221A60E2E7002400F055FE2046A2
:1036A00038BD00BF343600202C360020783600208C
:1036B0003C360020CC310020C0310020BC36002038
:1036C0007436002010B5A8B10446104B1B6843B1F6
:1036D0004FF0500383F31188BFF36F8FBFF34F8F09
:1036E000FEE7FFF7D9FE00212046FFF7D9FDFFF7DF
:1036F0006DFF48B94FF0E0234FF08052C3F8042D1E
:10370000BFF34F8FBFF36F8F10BD00BF3436002063
:103710001F4B1B681BB11F4B01221A6070471D4BCA
:1037200000221A601C4B1B6803EB83018A001B49B3
:103730008A585AB90BB1013BF6E74FF0500383F3B7
:103740001188BFF36F8FBFF34F8FFEE703EB83004A
:1037500082000A4450684068506003EB830C4FEAD3
:103760008C020832114488420BD003EB8302910093
:103770000A4A0A445268D168094A1160064A13602D
:103780007047406862469100044A0A445060ECE782
:1037900034360020BC3600203C360020CC310020DE
:1037A000C031002058B110B50C46094A11681831D3
:1037B000FFF7ADF801212046FFF772FD10BD4FF075
:1037C000500383F31188BFF36F8FBFF34F8FFEE772
:1037D000C031002038B570B10D4614460A4A116850
:1037E0001831FFF789F80CB14FF0FF352146284614
:1037F000FFF756FD38BD4FF0500383F31188BFF338
:103800006F8FBFF34F8FFEE7C031002038B5C3681C
:10381000DC6824B304F118052846FFF791F8184B2B
:103820001B682BBB251D2846FFF78AF8E06A154B5D
:103830001B68984201D9134B186000EB80002946A1
:10384000114B03EB8000FFF757F8E26A0F4B1B6840
:10385000DB6A9A4211D901200D4B186038BD4FF038
:10386000500383F31188BFF36F8FBFF34F8FFEE7D1
:1038700029460848FFF740F8E7E70020EEE700BFD9
:10388000343600203C360020CC310020C0310020EE
:10389000BC3600207836002060B110B5044600F038
:1038A00031FD094B1B682360084B1B68636000F007
:1038B0004BFD10BD4FF0500383F31188BFF36F8FA2
:1038C000BFF34F8FFEE700BF70360020B8360020F0
:1038D000034B1B680360034B1B684360704700BFCA
:1038E00070360020B8360020F8B5C8B10C46054641
:1038F000F9B100F007FD1B4B19686B68C81A226804
:10390000B2F1FF3F26D0184E36682F68B74201D07B
:103910008B4224D9824215D80023236001241AE067
:103920004FF0500383F31188BFF36F8FBFF34F8FB6
:10393000FEE74FF0500383F31188BFF36F8FBFF39F
:103940004F8FFEE75B1A134423602846FFF7C0FF42
:10395000002400E0002400F0F7FC2046F8BD01241C
:10396000F9E700BFB836002070360020014B012275
:103970001A607047BC360020054B1B6833B1054BFD
:103980001B680BB100207047022070470120704770
:103990008C3600203436002000283BD038B5044651
:1039A0001E4B1B68834208D04FF0500383F31188ED
:1039B000BFF36F8FBFF34F8FFEE7036D43B94FF037
:1039C000500383F31188BFF36F8FBFF34F8FFEE770
:1039D000013B0365C16AC26C91421DD00BB100204E
:1039E00038BD051D2846FEF7ABFFE06CE062C0F174
:1039F0003803A3610A4B1B68984201D9084B186031
:103A000000EB80002946074B03EB8000FEF774FFB4
:103A10000120E5E7002070470020E1E7C0310020E9
:103A20003C360020CC310020064B1A6813682BB9B5
:103A30000123036023B9D368186870470023F8E7AF
:103A400000207047C036002008B5416000619142F7
:103A50000CD8D21A83699A4201D3012008BD011DF6
:103A6000094B1868FEF753FF0020F7E79A4201D28E
:103A7000994206D2011D054B1868FEF748FF002049
:103A8000ECE70120EAE700BFC4360020C036002082
:103A900030B583B000F036FC114B1B681BB100F051
:103AA00053FC03B030BD0F4D2846FEF717FF0E4CF8
:103AB0002046FEF713FF0D4B1D600D4B1C600023CD
:103AC00000930C4B0C4A10210A20FFF73FF8044BDF
:103AD00018600028E3D00949FFF75CFADFE700BF70
:103AE000E4370020683700207C370020C0360020F3
:103AF000C436002094370020C836002080ED00082E
:103B000010B588B0FFF7C4FF124B1B68CBB100247F
:103B10000594069407AA06A905A800F061FA059B7A
:103B20000293069B0193022300932346079A0A49B6
:103B30000A48FFF7F3FB0A4B186010B1012008B0E8
:103B400010BD4FF0500383F31188BFF36F8FBFF3A5
:103B50004F8FFEE7E437002088ED0008653E00083F
:103B6000E8370020B8B19C4603461848006858B3AF
:103B700000B585B000910192029305291CDCFFF786
:103B8000FBFE022810D000231A4669460F48006841
:103B9000FFF726F815E04FF0500383F31188BFF3C9
:103BA0006F8FBFF34F8FFEE70023069A69460748E1
:103BB0000068FFF715F804E0002362466946FFF746
:103BC000D3F805B05DF804FB00207047E43700200F
:103BD00070B582B01B4B1B681A6862B3DB681E6845
:103BE000DC68251D2846FEF7ABFE236A2046984771
:103BF00094F8283013F0040FECD0A36933449E42AC
:103C000007D26360246129460E4B1868FEF77FFED9
:103C1000E0E7002100910B4632462046FFF7A2FF65
:103C20000028D7D14FF0500383F31188BFF36F8F73
:103C3000BFF34F8FFEE7044A106802490860136023
:103C400002B070BDC0360020C436002038B505462D
:103C5000FFF72AFC0446074B1B68834205D8002364
:103C60002B60044B1C60204638BDFFF7B1FF0123D9
:103C70002B60F6E79037002070B582B006460D46FF
:103C800017490968C968CC68201DFEF759FE94F8E9
:103C900028C01CF0040F08D12CF0010C84F828C0B7
:103CA000236A2046984702B070BDA16933462A4670
:103CB00031442046FFF7C8FE0028F1D000210091D2
:103CC0000B4632462046FFF74DFF0028E8D14FF063
:103CD000500383F31188BFF36F8FBFF34F8FFEE75D
:103CE000C036002070B582B006460C46FFF7D4FB04
:103CF00001A8FFF7ABFF019B33BB05460CB9B042EF
:103D000019D224B1124A12681268DAB90124224683
:103D1000711B104B1868FFF751F9FFF757FCA8B952
:103D20004FF0E0234FF08052C3F8042DBFF34F8FC4
:103D3000BFF36F8F0AE0FFF749FC29463046FFF7D3
:103D40009BFF03E01C46E2E7FFF740FC02B070BDBA
:103D5000C4360020E437002010B588B002E0049B90
:103D6000002B0FDA002204A93D4B1868FFF763F817
:103D7000002873D0049B002BF1DA07990698059B65
:103D80009847ECE7069C636913B1201DFEF7D8FD48
:103D900003A8FFF75BFF049B092BE3D8DFE803F0E0
:103DA0000505053037500505303794F8283043F0C5
:103DB000010384F82830059BA16902461944204676
:103DC000FFF742FE0028CDD0236A2046984794F89A
:103DD000283013F0040FC5D0A269002100910B46D2
:103DE000059802442046FFF7BDFE0028BAD14FF0E7
:103DF000500383F31188BFF36F8FBFF34F8FFEE73C
:103E000094F8283023F0010384F82830AAE794F8C6
:103E1000283043F0010384F828300599A16131B1BD
:103E20000346024601442046FFF70EFE9AE74FF094
:103E3000500383F31188BFF36F8FBFF34F8FFEE7FB
:103E400094F8283013F0020F04D023F0010384F813
:103E5000283087E7204600F0B1F983E708B010BDAD
:103E6000E437002000B583B001A8FFF7DDFD01991C
:103E7000FFF738FFFFF770FFF6E708B54FF0E023D4
:103E80001B69FFF779FD012800D108BD00F0AAFAEF
:103E9000FBE70000EFF305832BB9064B186828B940
:103EA00001221A6070476FF0050070474FF0FF3035
:103EB000704700BF483A0020EFF3058373B90A4BFF
:103EC0001B68012B0DD110B50024084BDC77064B85
:103ED00002221A60FFF792FA204610BD6FF005002B
:103EE00070474FF0FF307047483A002000ED00E087
:103EF000F0B587B000240594EFF3058474BB68B374
:103F000022B31568936903B918235C1E372C49D86E
:103F1000546814F0010F47D156696EB14FEA960C00
:103F200094682CB1D7685B2F02D9176907B1C6B95D
:103F30002CB14FF0FF340EE04FF0800CF0E7D46866
:103F40008CB9146994B14FF0FF3404E01546002495
:103F500018234FF0800C012C0AD0ACB1059807B0A3
:103F6000F0BD0124F7E74FF0FF34F4E70024F2E757
:103F7000146992680292019400930B4662462946A6
:103F8000FFF7CCF90590E9E705AA019200930B46EB
:103F90001FFA8CF22946FFF7FCF90128DED0002336
:103FA0000593DBE70020DAE70020D8E708B5EFF358
:103FB000058333B908B9002008BDFFF783FB002053
:103FC000FAE76FF00500F7E7034B0360034B0B6064
:103FD00080231360704700BFEC390020EC370020CD
:103FE000034B0360034B0B604FF480731360704707
:103FF0004C3E00204C3A0020124A12F0070F1ED00F
:10400000D11D21F00701C1F5705313440A460E4833
:104010000260002141601344083B23F007030B4872
:10402000036059601960991A51601360084B196058
:10403000084B1960084B4FF000421A6070474FF46C
:104040007053E4E7AC3E0020C07A0020A83E002078
:10405000B47A0020B07A0020AC7A0020164B1A46C1
:104060001B688342FBD3516802EB010C844509D0E5
:10407000416800EB010C634509D00360904219D000
:10408000106070474068014451601046F0E710B47A
:104090000A4C2468A3420BD05B6819444160136842
:1040A0001B680360904200D010605DF8044B7047BD
:1040B0000460F7E7704700BFC07A0020A83E0020E8
:1040C00070B50546FFF7E8F9364B1B68A3B1364BD0
:1040D0001B681D424ED135B1083515F0070F02D0CF
:1040E00025F007050835002D46D0304B1B68AB4244
:1040F00051D32F4A146804E0FFF77EFFE7E722461A
:104100001C466368AB4202D22368002BF7D1254BD3
:104110001B68A34241D016680836236813606368A1
:104120005B1B102B10D9601910F0070F08D04FF04F
:10413000500383F31188BFF36F8FBFF34F8FFEE7F8
:1041400043606560FFF78AFF626818490B689B1A35
:104150000B60184909688B4201D216490B60124B5B
:104160001B681343636000232360134A1368013301
:10417000136002E0002600E00026FFF727FA16F0A1
:10418000070F0CD04FF0500383F31188BFF36F8FEC
:10419000BFF34F8FFEE70026EFE70026EDE730463E
:1041A00070BD00BFA83E0020AC7A0020B07A00208D
:1041B000C07A0020B47A0020B87A0020002834D0D9
:1041C00038B50446A0F1080550F8043C174A1268B7
:1041D000134208D14FF0500383F31188BFF36F8F60
:1041E000BFF34F8FFEE750F8081C41B14FF050036A
:1041F00083F31188BFF36F8FBFF34F8FFEE723EA7E
:10420000020340F8043CFFF747F954F8041C084A3D
:1042100013680B4413602846FFF720FF054A136814
:1042200001331360FFF7D2F938BD7047AC7A002034
:10423000B07A0020BC7A002082B0002301930D4B9D
:104240001B68B3F1FF3F08D04FF0500383F3118890
:10425000BFF36F8FBFF34F8FFEE74FF0500383F331
:104260001188BFF36F8FBFF34F8F019B002BFCD0E2
:1042700002B070471000002008480068006880F312
:1042800008884FF0000080F3148862B661B6BFF36F
:104290004F8FBFF36F8F00DF00BF000008ED00E01D
:1042A000DFF80C00016841F4700101607047000004
:1042B00088ED00E04FF0807340F8043C21F00101EC
:1042C00040F8081C054B40F80C3C40F8202C6FF0DF
:1042D000020340F8243C4438704700BF39420008CC
:1042E000074B19680868B0E8F04F80F30988BFF3FE
:1042F0006F8F4FF0000080F311887047AFF300809C
:10430000C03100204FF0500383F31188BFF36F8F4B
:10431000BFF34F8F0B4A136801331360012B00D09A
:1043200070474FF0E023D3F8043D13F0FF0FF7D0B0
:104330004FF0500383F31188BFF36F8FBFF34F8F9C
:10434000FEE700BF10000020094B1B6843B94FF087
:10435000500383F31188BFF36F8FBFF34F8FFEE7D6
:10436000013B034A13600BB983F31188704700BF08
:10437000100000200000000000000000000000000D
:10438000EFF30980BFF36F8F154B1A681EF0100F03
:1043900008BF20ED108A20E9F04F10602DE90900D8
:1043A0004FF0500080F31188BFF34F8FBFF36F8F32
:1043B000FFF7AEF94FF0000080F3118809BC1968CF
:1043C0000868B0E8F04F1EF0100F08BFB0EC108A7C
:1043D00080F30988BFF36F8F704700BFAFF3008091
:1043E000C031002008B54FF0500383F31188BFF3AC
:1043F0006F8FBFF34F8FFFF75DF828B14FF0E023C9
:104400004FF08052C3F8042D002383F3118808BDB8
:104410004FF0E022002313619361054B1B680549AF
:10442000A1FB03139B09013B5361072313617047F1
:104430000C000020D34D62104FF0E023D3F8002D84
:104440003D4B9A421CD04FF0E023D3F8002D3B4B5C
:104450009A421ED030B583B0394B1A78D2B201924D
:10446000FF221A701B78DBB28DF803309DF8033001
:1044700003F05003334A1370334B07221A601BE0DA
:104480004FF0500383F31188BFF36F8FBFF34F8F4B
:10449000FEE74FF0500383F31188BFF36F8FBFF334
:1044A0004F8FFEE7284A1368013B13609DF80330E5
:1044B0005B00DBB28DF803309DF8033013F0800F02
:1044C000F0D1214B1B68032B08D04FF0500383F32E
:1044D0001188BFF36F8FBFF34F8FFEE71B021A4A9D
:1044E000136003F4E0631360019BDBB2144A1370A2
:1044F0004FF0E024D4F8203D43F47003C4F8203D8D
:10450000D4F8203D43F07043C4F8203DFFF780FF0E
:1045100000250E4B1D60FFF7C3FED4F8343F43F077
:104520004043C4F8343FFFF7A7FEFFF7F1F8FFF769
:1045300083FE284603B030BD71C20F4170C20F41E7
:1045400000E400E0C87A0020CC7A002010000020AF
:10455000EFF305830F2B0FD9114A9B5CDBB2114A95
:1045600012789A4208D94FF0500383F31188BFF3B1
:104570006F8FBFF34F8FFEE74FF0E023D3F80C3D72
:1045800003F4E063084A1268934208D94FF05003DD
:1045900083F31188BFF36F8FBFF34F8FFEE7704730
:1045A000F0E300E0C87A0020CC7A0020124A12F032
:1045B000070F1ED0D11D21F00701C1F57053134420
:1045C0000A460E480260002141601344083B23F074
:1045D00007030B48036059601960991A5160136012
:1045E000084B1960084B1960084B4FF000421A60E5
:1045F00070474FF47053E4E7D47A0020E0B600200F
:10460000D07A0020DCB60020D8B60020D4B6002036
:10461000164B1A461B688342FBD3516802EB010C10
:10462000844509D0416800EB010C634509D0036063
:10463000904219D0106070474068014451601046A4
:10464000F0E710B40A4C2468A3420BD05B6819440D
:10465000416013681B680360904200D010605DF8F1
:10466000044B70470460F7E7704700BFE0B60020D6
:10467000D07A002070B50546FEF70EFF344B1B685C
:10468000A3B1344B1B681D424AD135B1083515F032
:10469000070F02D025F007050835002D42D02E4B1C
:1046A0001B68AB424DD32D4A146804E0FFF77EFF30
:1046B000E7E722461C466368AB4202D22368002B20
:1046C000F7D1234B1B68A3423DD0166808362368F8
:1046D000136063685B1B102B10D9601910F0070F73
:1046E00008D04FF0500383F31188BFF36F8FBFF3EF
:1046F0004F8FFEE743606560FFF78AFF62681649E7
:104700000B689B1A0B60164909688B4201D2144949
:104710000B60104B1B68134363600023236002E0AF
:10472000002600E00026FEF751FF16F0070F0CD020
:104730004FF0500383F31188BFF36F8FBFF34F8F98
:10474000FEE70026EFE70026EDE7304670BD00BF2C
:10475000D07A0020D4B60020D8B60020E0B60020E1
:10476000DCB6002080B338B50446A0F1080550F847
:10477000043C164A1268134208D14FF0500383F3E9
:104780001188BFF36F8FBFF34F8FFEE750F8081CFF
:1047900041B14FF0500383F31188BFF36F8FBFF324
:1047A0004F8FFEE723EA020340F8043CFEF774FE55
:1047B00054F8041C064A13680B4413602846FFF79C
:1047C00027FFFEF703FF38BD704700BFD4B60020B7
:1047D000D8B6002050F8043C024A106823EA0000D2
:1047E000704700BFD4B6002070B505460C46FEF7F2
:1047F00053FE2046FFF73EFF064678B175B12846C6
:10480000FFF7E8FF0838844200D3044622462946D1
:10481000304600F0FCFA2846FFF7A4FFFEF7D6FE6C
:10482000304670BD38B505460C46FEF735FE05FB33
:1048300004F42046FFF71EFF0546034603E000216F
:1048400003F8011B1446621E002CF8D1FEF7BEFED1
:10485000284638BD08B505490A6802440A6004497B
:104860000A6802440A60FFF705FF08BDE8B60020A9
:10487000ECB6002058B110B50446FFF7ABFF044A70
:1048800013681B1A13602046FFF76CFF10BD7047BA
:10489000ECB6002038B50C460C4A13680B44136084
:1048A0000B4A13680B44136058B10546FFF792FF9B
:1048B000074A13681B1A136021462846FFF794FF26
:1048C00038BD0846FFF7D6FEFAE700BFE8B600207D
:1048D000ECB6002010B501FB00F3054C22681A4429
:1048E0002260044C22681A442260FFF79BFF10BD2F
:1048F000E8B60020ECB600202DE9F04107460E4650
:10490000144615A3D3E90023FBF7C2FC0D468046ED
:104910002060616010A3D3E9002338463146FBF7DD
:10492000B7FCA260002A01DBBDE8F081084981FBE9
:104930000231D317C3EB21730133B8EB030165EBED
:10494000E37521606560034901FB0322A260EBE788
:10495000A12FB84400CA9A3B00CA9A3B000000004D
:1049600070B582B00D460024009401946846FEF7AD
:1049700093FF009E019A4FEA461C4CEAD26C530109
:104980009B1A6CEB060C4FEA4C2C4CEAD35C5B0296
:104990009B1846EB0C0C4FEA8C1141EA936198018D
:1049A000C01A61EB0C0180182A4646EB0101FFF7A3
:1049B000A3FF204602B070BD08B54FF40062034962
:1049C000D0F88C02FDF76CFF012008BDF0B6002086
:1049D00008B5D0F88C02FDF749FC012008BD70B580
:1049E000D0F88C5295F84130DBB2202B01D000205A
:1049F00070BD144692B22846FDF7F6FB064646B94E
:104A000095F84130DBB2202B03D00120FFF7CEFA1E
:104A1000F5E70EB92046EBE70020E9E72DE9F8437A
:104A20000D4614461F46D0F88C82002672B6D8F880
:104A30003C301B685868C0F50060DFF85490C9F836
:104A4000000062B601360120FFF7B0FA0E4B1B687A
:104A5000D9F80020934214D1BE42E7DB002008E0E1
:104A60000A49C95C29540133C3F30A0306490B60A0
:104A70000130054B1B689A4201D0A042F0D3BDE83B
:104A8000F8830020F5E700BFF0BE0020F0B600205C
:104A9000F4BE0020DFF834D0FDF716FF0C480D49B6
:104AA0000D4A002302E0D458C4500433C4188C4289
:104AB000F9D30A4A0A4C002301E013600432A242EF
:104AC000FBD300F07DF9FBF72BFE704700000320BD
:104AD00000000020C800002060F70008C800002087
:104AE000900B0120FEE70000002310B50446C0E94A
:104AF0000033C0E90433836081814366C2818361EE
:104B0000194608225C3000F006F90D4B63620D4B2C
:104B1000A3620D4BE3620D4B23630D4B24629C4259
:104B200006D003F16802944202D0D0339C4205D1F2
:104B300004F15800BDE8104000F066B910BD00BF98
:104B4000914C0008B34C0008EB4C00080F4D0008D6
:104B5000F8BE0020024A0349034800F069B800BFCC
:104B600014000020D15600082000002041680C4BA2
:104B7000994210B5044601D000F0AAFDA168094B86
:104B8000994202D0204600F0A3FDE168064B99420D
:104B900004D02046BDE8104000F09ABD10BD00BF13
:104BA000F8BE002060BF0020C8BF002010B50B4B2E
:104BB0000B4C0C4A1A60204600220421FFF794FF98
:104BC00004F1680001220921FFF78EFF04F1D000F3
:104BD0000222BDE810401221FFF786BF30C000203E
:104BE000F8BE0020554B0008014800F00EB900BF88
:104BF0003AC00020014800F009B900BF3AC00020C7
:104C000010B50446FFF7F0FF236A1BB1BDE8104062
:104C1000FFF7F0BF044B2362044B1B68002BF5D158
:104C2000FFF7C4FFF2E700BF6D4B000830C0002063
:104C30002DE9F8430746884614460026D4E9019535
:104C4000B9F1010905D52468002CF7D13046BDE83B
:104C5000F883AB89012B07D9B5F90E30013303D0A6
:104C600029463846C04706436835E9E70FB407B51B
:104C7000064904AB086853F8042B8168019300F0DF
:104C8000F7F903B05DF804EB04B070476C00002046
:104C900010B50C46B1F90E1000F068F80028ABBF53
:104CA000636DA3891B1823F48053ACBF6365A38194
:104CB00010BD2DE9F0411F468B89DB0505460C46EA
:104CC000164605D5B1F90E100223002200F03CF87B
:104CD000A389B4F90E1023F48053A38132463B46D6
:104CE0002846BDE8F04100F053B810B50C46B1F9C4
:104CF0000E1000F029F8431CA38915BF606523F44A
:104D0000805343F48053A38118BFA38110BDB1F930
:104D10000E1000F009B802440346934200D17047D8
:104D200003F8011BF9E7000038B5064D00230446DF
:104D300008462B60FBF76EFF431C02D12B6803B1C2
:104D4000236038BD34C0002038B5074D04460846FE
:104D5000114600222A601A46FBF766FF431C02D167
:104D60002B6803B1236038BD34C0002038B5074D2F
:104D700004460846114600222A601A46FBF706FF41
:104D8000431C02D12B6803B1236038BD34C000201E
:104D900038B5074D04460846114600222A601A46D7
:104DA000FBF704FF431C02D12B6803B1236038BD1D
:104DB00034C00020014B1868704700BF6C00002011
:104DC00070B50D4D0D4C641BA4100026A64209D1F0
:104DD0000B4D0C4C09F062FF641BA4100026A64288
:104DE00005D170BD55F8043B98470136EEE755F8FC
:104DF000043B98470136F2E758F7000858F70008D7
:104E000058F700085CF700087047704770470A447D
:104E1000914200F1FF3300D1704710B511F8014BFA
:104E200003F8014F9142F9D110BD000037B50029B8
:104E300044D051F8043C0190002BA1F10404B8BF08
:104E4000E41800F0DFF81E4A0198136833B9636074
:104E5000146003B0BDE8304000F0DAB8A34208D9CE
:104E6000256861198B4201BF19685B684919216087
:104E7000EDE71A465B680BB1A342FAD911685518E1
:104E8000A5420BD1246821445418A3421160E0D1FB
:104E90001C685B6853600C441460DAE702D90C2389
:104EA0000360D6E7256861198B4204BF19685B6807
:104EB000636004BF491921605460CAE703B030BD84
:104EC0003CC0002070B50E4E0C463168054611B945
:104ED00000F0D6FC30602146284600F0D1FC431C8F
:104EE0000AD0C41C24F00304A04207D0211A28468B
:104EF00000F0C6FC013001D14FF0FF34204670BDF8
:104F000040C000202DE9F843CD1C25F003050835ED
:104F10000C2D38BF0C25002D074601DBA94205D911
:104F20000C233B6000263046BDE8F883DFF8D080D4
:104F300000F068F8D8F800301C465CBB29463846BB
:104F4000FFF7C0FF431C044655D1D8F80040264661
:104F5000002E45D1002C48D023683146384604EB5A
:104F6000030900F08DFC81453FD121686D1A294667
:104F70003846FFF7A7FF013037D023682B44236062
:104F8000D8F80030002B38D05A68A2422BD100222A
:104F90005A600FE02268521B1FD40B2A17D96119DF
:104FA000A342256018BF5960636808BFC8F80010A5
:104FB00062514B60384604F10B0600F029F826F0E8
:104FC0000706231DF21AAED09B1BA350ABE7A342EA
:104FD0006268DDD1C8F80020ECE723466468ACE7DE
:104FE00034467668B4E71346CCE70C233B6038467A
:104FF00000F00EF897E72560DCE75B60FFDE00BF9E
:105000003CC000200148FFF700BF00BF39C00020AE
:105010000148FFF7FBBE00BF39C000209368013B89
:10502000002B10B4936008DA9469A34201DB0A29CB
:1050300003D15DF8044B00F073BB1368581C10607B
:10504000197008465DF8044B7047F8B506460F46E0
:105050001446D518AC4201D1002007E014F8011B1A
:105060003A463046FFF7DAFF431CF3D1F8BD0000A3
:105070002DE9F04F0D469DB014469846064618B1EE
:10508000036A0BB9FFF7BCFD6B6ED90705D4AB897A
:105090009A0502D4A86DFFF7B8FEAB891B0701D5AE
:1050A0002B699BB92946304600F078FB70B16B6ED6
:1050B000DC0704D54FF0FF301DB0BDE8F08FAB89A1
:1050C0009805F7D4A86DFFF7A1FEF3E70023099335
:1050D00020238DF82930CDF80C803023DFF8B08103
:1050E0008DF82A304FF0010923469A4613F8012B18
:1050F0000AB1252AF9D1BAEB040B0BD05B46224644
:1051000029463046FFF7A1FF013000F0A980099A37
:105110005A4409929AF80030002B00F0A180002335
:105120004FF0FF32CDE905230AF1010A04930793FA
:105130008DF853301A935446052214F8011B544835
:10514000FBF756F8049AD8B9D10644BF20238DF84E
:105150005330130744BF2B238DF853309AF8003097
:105160002A2B15D0079A544600204FF00A0C2146EE
:1051700011F8013B303B092B4DD9B0B1079214E037
:10518000A0EB080309FA03F313430493A246D2E702
:10519000039B191D1B680391002BBBBF5B4242F0B0
:1051A000020207930793B8BF049223782E2B0CD1E9
:1051B00063782A2B34D1039B1A1D1B680392002BA2
:1051C000B8BF4FF0FF3302340593DFF8D4A0217845
:1051D00003225046FBF70CF838B1049BA0EB0A0001
:1051E0004022824013430134049314F8011B2948E0
:1051F0008DF828100622FAF7FBFF00283FD0264B37
:105200001BBB039B073323F0070308330393099B5E
:105210003B44099368E70CFB02320C460120A6E7E9
:1052200000230134059319464FF00A0C204610F86C
:10523000012B303A092A03D9002BC6D00591C4E7C7
:105240000CFB012104460123F0E703AB00932A463F
:10525000124B04A93046AFF300800746781CD6D124
:105260006B6ED90705D4AB899A0502D4A86DFFF7F8
:10527000CDFDAB895B063FF51DAF09981CE703AB7D
:1052800000932A46054B04A9304600F079F8E4E77C
:1052900090ED00089AED0008000000004B50000857
:1052A00096ED00082DE9F047164699468A680B6985
:1052B000DDF820809342B8BF1346336091F8432055
:1052C00007460C460AB1013333602368990642BF92
:1052D000336802333360256815F0060506D104F102
:1052E000190AE36832689B1AAB4226DC94F8432023
:1052F000131E226818BF012392062BD404F1430227
:1053000049463846C04701301ED02368226903F061
:105310000603042B02BFE5683368ED1AA3680CBFCF
:1053200025EAE57500259342C4BF9B1AED180026B7
:105330001A34B5421AD1002008E0012352464946EA
:105340003846C047013003D14FF0FF30BDE8F08749
:105350000135C6E7E1185A1C302081F84300224489
:1053600094F8451082F843100233C7E70123224620
:1053700049463846C0470130E6D00136D9E700003B
:105380002DE9FF470F7E0C9D782F914680460C46F5
:105390009A4601F1430207D8622F0AD8002F00F085
:1053A000D480582F00F0C08004F1420584F8427088
:1053B0003AE0A7F16303152BF6D801A151F823F0C9
:1053C000195400082D540008A9530008A9530008D7
:1053D000A9530008A95300082D540008A953000838
:1053E000A9530008A9530008A95300083155000823
:1053F00059540008EB540008A9530008A9530008A9
:1054000053550008A953000859540008A95300082F
:10541000A9530008F35400082B681A1D1B682A6062
:1054200004F1420584F8423001239FE020682B6894
:10543000070603F10401296001D51E6803E0460652
:10544000FBD5B3F90060002E03DA2D23764284F8F1
:1054500043305A480A2312E02B682068191D29603E
:10546000050601D51E6802E04106FBD51E8853489B
:105470006F2F0CBF08230A23002184F843106568AE
:10548000A560002DA2BF216821F0040121600EB9A2
:10549000002D4BD01546B6FBF3F103FB1167C75D3A
:1054A00005F8017D3746BB420E46F4D9082B0BD1D7
:1054B0002368DE0708D5236961689942DEBF30237F
:1054C00005F8013C05F1FF35521B2261CDF800A023
:1054D0004B4603AA21464046FFF7E4FE01304AD17D
:1054E0004FF0FF3004B0BDE8F087236843F020039D
:1054F00023603348782784F84570236829681F069D
:1055000051F8046B02D45F0648BFB6B2DF0748BF4C
:1055100043F02003296048BF23601EB9236823F0AD
:10552000200323601023A7E72448E4E71546BDE7DE
:105530002B6826686169181D286035061B6801D52F
:10554000196002E07006FBD519800023236115461F
:10555000BCE72B681A1D2A601D6862680021284676
:10556000FAF746FE08B1401B6060636823610023C0
:1055700084F84330AAE723692A4649464046D04783
:105580000130ADD023689B0713D4E068039B984299
:10559000B8BF1846A6E70123324649464046D047E1
:1055A00001309DD00135E36803995B1AAB42F2DC10
:1055B000EBE7002504F11906F5E700BFA1ED0008AF
:1055C000B2ED00088A892DE9F041054610070C4626
:1055D00058D44B68002B05DC0B6C002B02DC002040
:1055E000BDE8F081E66A002EF9D0002312F4805263
:1055F0002F68216A2B6032D0606DA3895A0705D5C8
:105600006368C01A636B0BB1236CC01A0023024697
:10561000E66A216A2846B047431CA38906D1296857
:105620001D292BD8294A0A41D60727D400226260B7
:10563000D9042269226004D5421C01D12B6803B928
:105640006065616B2F600029C9D004F14403994261
:1056500002D02846FFF7EAFB00206063C0E7012381
:105660002846B047411CC8D12B68002BC5D01D2B44
:1056700001D0162B01D12F60B1E7A38943F040037D
:10568000A381ADE70F69002FA9D093070E6808BF6B
:105690004B690F6018BF0023A6EB07088B60B8F1B9
:1056A000000F9CDD216AA66A43463A462846B04769
:1056B000002806DCA38943F04003A3814FF0FF30AC
:1056C0008EE70744A8EB0008E9E700BFFEFFBFDF55
:1056D00038B50B6905460C4613B90025284638BD78
:1056E00018B1036A0BB9FFF78BFAB4F90C30002B31
:1056F000F3D0626ED00704D4990502D4A06DFFF7F1
:1057000084FB28462146FFF75DFF636EDA070546F6
:10571000E4D4A3899B05E1D4A06DFFF777FBDDE717
:10572000F8B50E461446054618B1036A0BB9FFF7E3
:1057300067FAA369A360A3891A0725D523691BB358
:1057400023682269981A6369F6B28342374604DCFB
:1057500021462846FFF7BCFFE0B9A368013BA360E0
:1057600023685A1C22601E706269431C9A4204D04E
:10577000A389DB0706D50A2E04D121462846FFF768
:10578000A7FF38B93846F8BD2146284600F006F88C
:105790000028D5D04FF0FF37F4E7000038B52A4B8A
:1057A000054618680C4618B1036A0BB9FFF728FACA
:1057B000A389B4F90C20180722D4D90607D40923E9
:1057C0002B6042F04003A3814FF0FF3034E05807D4
:1057D00012D5616B41B104F14403994202D02846CD
:1057E000FFF724FB00236363A38923F02403A38131
:1057F0000023636023692360A38943F00803A38126
:1058000023694BB9A38903F42073B3F5007F03D058
:105810002146284600F099F8A089B4F90C2010F030
:1058200001030AD00023A36063695B42A36123697B
:1058300043B910F08000C4D138BD810758BF6369F7
:10584000A360F4E70020F7E76C000020884210B561
:1058500001EB020402D98442234607D8431EA14229
:1058600008D011F8012B03F8012FF8E70244014694
:105870008A4200D110BD13F8014D02F8014DF7E73F
:1058800038B5064D0023044608462B60FBF79CF90B
:10589000431C02D12B6803B1236038BD34C0002003
:1058A0002DE9F041804614460E4621B9BDE8F0418D
:1058B0001146FFF727BB2AB9FFF7B8FA2546284655
:1058C000BDE8F08100F0A0F88442074602D8B4EBAE
:1058D000500F12D821464046FFF714FB054600281A
:1058E000EDD0BC422246314628BF3A46FFF78FFA38
:1058F00031464046FFF79AFAE1E73546DFE770B5F3
:105900000C46B1F90E10002996B015461E460DDA68
:10591000A38913F0800F4FF000010CBF4FF4806398
:105920004023002031602B6016B070BD6A4600F045
:1059300049F80028ECDB019901F47041A1F500530E
:10594000594259414FF48063EBE78B8973B59D074A
:1059500006460C4607D504F1470323602361012363
:10596000636102B070BD01AB6A46FFF7C8FF0099E2
:1059700005463046FFF7C6FA48B9B4F90C309A0527
:10598000EFD423F0030343F00203A381E3E7A389E9
:10599000206043F08003A381009B6361019B206131
:1059A0005BB1B4F90E10304600F01EF828B1A3899F
:1059B00023F0030343F00103A381A3891D43A581C1
:1059C000CFE7000038B5074D0023044608461146CE
:1059D0002B60FBF722F9431C02D12B6803B1236033
:1059E00038BD00BF34C0002038B5064D0023044642
:1059F00008462B60FBF716F9431C02D12B6803B154
:105A0000236038BD34C0002051F8043C181F002B1F
:105A1000BCBF0B58C0187047014B1868704700BFD7
:105A2000C4ED00082DE9F04F91B01A9FD7B307F1EC
:105A3000500904464846884616461D4600F030FA8E
:105A400080B37CB3D4F800A0BAF1000F04D0642571
:105A5000284611B0BDE8F08F404605F015FB30B385
:105A600006B3FDB1CE46BEE80F000DF12C0CACE83C
:105A70000F00DEF80030CCF8003000F04DFA10AB2B
:105A8000844613E90700CDF820C08DE80700DDE962
:105A90000B23514608A800F0B9FA50B10A2813D0D8
:105AA0000125D5E70B25284611B0BDE8F08FC825A4
:105AB000CEE708A804F01EFF824638B108A800F01F
:105AC000E5FABAF10A0FEBD10A25C1E74046CDF855
:105AD00024A005F0E3FA8246404605F0E7FA864640
